:020000040800F2
:10000000101B0020C9070008D1070008D30700080B
:10001000D5070008D7070008D9070008000000002E
:10002000000000000000000000000000350700088C
:10003000DD07000800000000A1070008B107000864
:10004000E3070008E3070008E3070008E3070008E8
:10005000E3070008E3070008E3070008E3070008D8
:10006000E3070008E3070008E3070008E3070008C8
:10007000E3070008E3070008E3070008E3070008B8
:10008000E3070008E3070008E3070008E3070008A8
:10009000E3070008E3070008E3070008E307000898
:1000A000E3070008E3070008E3070008E307000888
:1000B000E3070008E3070008E3070008E307000878
:1000C000E3070008E3070008E3070008E307000868
:1000D000E3070008E3070008E3070008E307000858
:1000E000E3070008E3070008E3070008E307000848
:1000F000E3070008E3070008E3070008E307000838
:10010000E3070008E3070008E3070008E307000827
:10011000E3070008E3070008E3070008E307000817
:10012000E3070008E3070008E3070008E307000807
:1001300000F002F800F05AF80AA090E8000C82449F
:100140008344AAF10107DA4501D100F04FF8AFF27C
:10015000090EBAE80F0013F0010F18BFFB1A43F0A5
:1001600001031847C0110400E01104000A444FF0D5
:10017000000C10F8013B13F0070408BF10F8014B06
:100180001D1108BF10F8015B641E05D010F8016B4B
:10019000641E01F8016BF9D113F0080F1EBF10F8AF
:1001A000014BAD1C0C1B09D16D1E58BF01F801CBD2
:1001B000FAD505E014F8016B01F8016B6D1EF9D555
:1001C0009142D6D37047000000230024002500266A
:1001D000103A28BF78C1FBD8520728BF30C148BFAA
:1001E0000B6070471FB51FBD10B510BD00F0CFFBF1
:1001F000114603B401F031FD03BCFFF7F3FF02F039
:1002000035F800F0E9FB03B4FFF7EEFF03BC00F0A4
:10021000F1FB00000246D2E84F0FC2E8431F03B1D2
:10022000F9E77047024652E8000F40EA010042E851
:10023000000303B1F7E7704710B5024652E8000F1C
:1002400020EA010442E8004303B1F7E710BD10B50E
:10025000024652E8000F00EA01048C4203D0BFF3CB
:100260002F8F002010BD20EA010442E8004303B1B3
:10027000EFE710BD10B5024652E8000F084203D167
:10028000BFF32F8F002010BD20EA010442E8004395
:1002900003B1F1E710BD024652E8000F411C42E8ED
:1002A000001303B1F8E7704710B50246D2E85F0FBC
:1002B000814202D8BFF32F8F10BD441CC2E8534FB8
:1002C00003B1F3E710BD10B50246D2E85F0F441C3E
:1002D000A14200D80024C2E8534F03B1F5E710BD96
:1002E000024652E8000F411E42E8001303B1F8E74E
:1002F0007047024652E8000F10B9BFF32F8F7047C6
:10030000411E42E8001303B1F4E770470246D2E809
:100310005F0F10B9BFF32F8F7047411EC2E8531F04
:1003200003B1F4E77047024652E8000F10B9BFF37B
:100330002F8F7047016842E8001303B1F4E770475C
:1003400002680A60BFF35F8F50E8002F0B6893428A
:10035000F6D140E8001303B1F2E770470246D2E855
:100360004F0FC2E8431F03B1F9E77047024652E856
:10037000000F40EA010042E8000303B1F7E77047CD
:1003800010B5024652E8000F20EA010442E800439B
:1003900003B1F7E710BD10B5024652E8000F00EABE
:1003A00001048C4203D0BFF32F8F002010BD20EA40
:1003B000010442E8004303B1EFE710BD10B5024667
:1003C00052E8000F084203D1BFF32F8F002010BD69
:1003D00020EA010442E8004303B1F1E710BD024600
:1003E00052E8000F411C42E8001303B1F8E77047E0
:1003F00010B50246D2E85F0F814202D8BFF32F8FBB
:1004000010BD441CC2E8534F03B1F3E710BD10B553
:100410000246D2E85F0F441CA14200D80024C2E883
:10042000534F03B1F5E710BD024652E8000F411EDD
:1004300042E8001303B1F8E77047024652E8000FA4
:1004400010B9BFF32F8F7047411E42E8001303B16C
:10045000F4E770470246D2E85F0F10B9BFF32F8F61
:100460007047411EC2E8531F03B1F4E770470246CC
:1004700052E8000F10B9BFF32F8F7047016842E8B0
:10048000001303B1F4E7704702680A60BFF35F8F9F
:1004900050E8002F0B689342F6D140E8001303B1F7
:1004A000F2E770470246D2E84F0FC2E8431F03B19C
:1004B000F9E77047024652E8000F40EA010042E8BF
:1004C000000303B1F7E7704710B5024652E8000F8A
:1004D00020EA010442E8004303B1F7E710BD10B57C
:1004E000024652E8000F00EA01048C4203D0BFF339
:1004F0002F8F002010BD20EA010442E8004303B121
:10050000EFE710BD10B5024652E8000F084203D1D4
:10051000BFF32F8F002010BD20EA010442E8004302
:1005200003B1F1E710BD024652E8000F411C42E85A
:10053000001303B1F8E7704710B50246D2E85F0F29
:10054000814202D8BFF32F8F10BD441CC2E8534F25
:1005500003B1F3E710BD10B50246D2E85F0F441CAB
:10056000A14200D80024C2E8534F03B1F5E710BD03
:10057000024652E8000F411E42E8001303B1F8E7BB
:100580007047024652E8000F10B9BFF32F8F704733
:10059000411E42E8001303B1F4E770470246D2E877
:1005A0005F0F10B9BFF32F8F7047411EC2E8531F72
:1005B00003B1F4E77047024652E8000F10B9BFF3E9
:1005C0002F8F7047016842E8001303B1F4E77047CA
:1005D00002680A60BFF35F8F50E8002F0B689342F8
:1005E000F6D140E8001303B1F2E770470246D2E8C3
:1005F0004F0FC2E8431F03B1F9E77047024652E8C4
:10060000000F40EA010042E8000303B1F7E770473A
:1006100010B5024652E8000F20EA010442E8004308
:1006200003B1F7E710BD10B5024652E8000F00EA2B
:1006300001048C4203D0BFF32F8F002010BD20EAAD
:10064000010442E8004303B1EFE710BD10B50246D4
:1006500052E8000F084203D1BFF32F8F002010BDD6
:1006600020EA010442E8004303B1F1E710BD02466D
:1006700052E8000F411C42E8001303B1F8E770474D
:1006800010B50246D2E85F0F814202D8BFF32F8F28
:1006900010BD441CC2E8534F03B1F3E710BD10B5C1
:1006A0000246D2E85F0F441CA14200D80024C2E8F1
:1006B000534F03B1F5E710BD024652E8000F411E4B
:1006C00042E8001303B1F8E77047024652E8000F12
:1006D00010B9BFF32F8F7047411E42E8001303B1DA
:1006E000F4E770470246D2E85F0F10B9BFF32F8FCF
:1006F0007047411EC2E8531F03B1F4E7704702463A
:1007000052E8000F10B9BFF32F8F7047016842E81D
:10071000001303B1F4E7704702680A60BFF35F8F0C
:1007200050E8002F0B689342F6D140E8001303B164
:10073000F2E770471EF0040F0CBFEFF30880EFF3F1
:100740000980816911F8021CD9B901B590E80F1030
:10075000E047BDE800508CE80300194B93E8060021
:10076000914208BF704719B12CE9F00FC1F838C0A9
:100770001A60906BB0E8F00F80F309886FF0020EFA
:100780007047104A13689942FAD801B552F821C04F
:100790000FC8E047BDE80050CCF8000070470000EB
:1007A00001B502F02BF9BDE80140EFF3098CD4E765
:1007B00001B502F01BFCBDE80140EFF3098CCCE76A
:1007C0001C140020441204080948804709480047C7
:1007D000FEE7FEE7FEE7FEE7FEE7FEE7FEE7FEE7F1
:1007E000FEE7FEE704480549054A064B704700004E
:1007F0002D1700083101000810150020101B0020E3
:100800001017002010170020032A40F2308010F04B
:10081000030C00F0158011F8013BBCF1020F62449B
:1008200098BF11F801CB00F8013B38BF11F8013B2C
:10083000A2F1040298BF00F801CB38BF00F8013BD9
:1008400011F0030300F07180083AC0F0088051F8FD
:10085000043B083A51F804CBA0E80810F5E7121D54
:100860005CBF51F8043B40F8043BAFF30080D20773
:1008700024BF11F8013B11F801CB48BF11F8012B3F
:1008800024BF00F8013B00F801CB48BF00F8012B62
:1008900070474FF000020429C0F0128010F0030CE2
:1008A00000F01B80CCF1040CBCF1020F18BF00F863
:1008B000012BA8BF20F8022BA1EB0C0100F00DB812
:1008C0005FEAC17C24BF00F8012B00F8012B48BF70
:1008D00000F8012B70474FF0000200B51346944614
:1008E0009646203922BFA0E80C50A0E80C50B1F188
:1008F0002001BFF4F7AF090728BFA0E80C5048BF9C
:100900000CC05DF804EB890028BF40F8042B08BF39
:10091000704748BF20F8022B11F0804F18BF00F835
:10092000012B704770477047704710B5203AC0F0F0
:100930000B80B1E81850203AA0E81850B1E81850E0
:10094000A0E81850BFF4F5AF5FEA027C24BFB1E81D
:100950001850A0E8185044BF18C918C0BDE810408E
:100960005FEA827C24BF51F8043B40F8043B08BF97
:100970007047D20728BF31F8023B48BF11F8012B5E
:1009800028BF20F8023B48BF00F8012B704775468E
:1009900000F02CF8AE4605006946534620F00700EB
:1009A000854618B020B5FFF71DFFBDE820404FF089
:1009B00000064FF000074FF000084FF0000B21F049
:1009C0000701AC46ACE8C009ACE8C009ACE8C00916
:1009D000ACE8C0098D46704710B50446AFF30080FF
:1009E0002046BDE81040FFF70EBC000000487047ED
:1009F000AC14002001491820ABBEFEE7260002001F
:100A0000704770477047704770477047704770472E
:100A1000704770477047704770477047704770471E
:100A2000704770477047704770477047704770470E
:100A300070477047704770477047704770477047FE
:100A400070477047704770477047704770477047EE
:100A500070477047704770477047704770477047DE
:100A600070477047704770477047704770477047CE
:100A700070477047704770477047704770477047BE
:100A80007047000051B18200A2F1C042126842F0EA
:100A900001038200A2F1C042136009E08200A2F1CA
:100AA000C0421268034B1A408300A3F1C0431A608E
:100AB00070470000FEFF0F00D0E901121143C26829
:100AC0001143026911434269114382691143C269AA
:100AD0001143026A1143426A1143826A1143C26A96
:100AE0001143026B114302689200A2F1C0421160EF
:100AF000816808290BD101688900A1F1C04109680A
:100B000041F0400201688900A1F1C0410A60416BD7
:100B10000968426B526841EA0211426B926841EAED
:100B20000221426B928941EA0241426B128A41EAF8
:100B30000251426B127D41EA0261426B926911439C
:100B40000268521C9200A2F1C0421160C16AB1F564
:100B5000804F1BD1816B0968826B526841EA021198
:100B6000826B926841EA0221826B128A41EA025149
:100B7000826B127D41EA0261826B926911430268C5
:100B80009200A2F1C042C2F8041107E06FF0704277
:100B900001688900A1F1C041C1F8042170472DE925
:100BA000F0410246002500260020002300240027F3
:100BB00091F803C00CF00F0591F803C00CF0100C75
:100BC000BCF1000F03D091F802C04CEA050591F882
:100BD00000C0BCF1000F31D0146800202BE04FF0B2
:100BE000010C0CFA00F3B1F800C00CEA03069E42B7
:100BF00020D183004FF00F0C0CFA03F7BC4305FA29
:100C000003FC4CEA040491F803C0BCF1280F06D1A0
:100C10004FF0010C0CFA00FCC2F814C00AE091F885
:100C200003C0BCF1480F05D14FF0010C0CFA00FCD9
:100C3000C2F810C0401C0828D1D31460B1F800C01D
:100C4000BCF1FF0F34DD546800202EE000F1080CE9
:100C50004FF0010808FA0CF3B1F800C00CEA0306E3
:100C60009E4221D183004FF00F0C0CFA03F7BC43D6
:100C700005FA03FC4CEA040491F803C0BCF1280F08
:100C800005D100F1080C08FA0CF8C2F8148091F8AC
:100C900003C0BCF1480F07D100F1080C4FF0010868
:100CA00008FA0CF8C2F81080401C0828CED3546013
:100CB000BDE8F0810246002093680B400BB1012093
:100CC00000E0002070470161704700BFEFF3108023
:100CD00018B900BFEFF3118008B101207047002060
:100CE000FCE700BFEFF3108018B900BFEFF31180ED
:100CF00008B1012070470020FCE700BFEFF310802F
:100D000018B900BFEFF3118008B10120704700202F
:100D1000FCE700BFEFF3108018B900BFEFF31180BC
:100D200008B1012070470020FCE700BFEFF31080FE
:100D300018B900BFEFF3118008B1012070470020FF
:100D4000FCE700BFEFF3058008B1012070470020E9
:100D5000FCE700BFEFF3058008B1012070470020D9
:100D6000FCE700BFEFF3058008B1012070470020C9
:100D7000FCE700BFEFF3058008B1012070470020B9
:100D8000FCE700BFEFF3058008B1012070470020A9
:100D9000FCE700BFEFF3148000F0010080F00100D9
:100DA00070470000002108E00648405C064A525C9B
:100DB000904201D000207047491C0529F4DB012036
:100DC000F9E70000081300200D13002008B50121E9
:100DD000442000F0A3FB1020ADF8000048208DF85F
:100DE000030002208DF8020069460E48FFF7D7FE87
:100DF0000820ADF8000069460A48FFF7D0FE04203D
:100E0000ADF8000069460748FFF7C9FE0120ADF8BC
:100E1000000028208DF8030069460348FFF7BFFE55
:100E200008BD0000001801400008014010B504464C
:100E300014B101202B49087010212B48FFF73AFF0D
:100E4000012813D108212848FFF734FF01280DD1CC
:100E500004212548FFF72EFF012807D1012123484F
:100E6000FFF728FF10B901201E4908701D480078BF
:100E7000A0B310211C48FFF71DFF78B108211A48C4
:100E8000FFF718FF50B104211748FFF713FF28B1EF
:100E900001211648FFF70EFF012820D1002011493B
:100EA000087010211048FFF705FF08B9012010BD98
:100EB00008210D48FFF7FEFE08B90220F7E70421DC
:100EC0000948FFF7F7FE08B90320F0E701210748BA
:100ED000FFF7F0FE012802D10420E8E7FFE7002039
:100EE000E5E70000DC130020001801400008014085
:100EF00070B506460F484088401E83B20D480088F2
:100F0000401E82B20021084600F0DEF800240CE00A
:100F1000002504E0304600F04DFA681C85B2054813
:100F20004088A842F6DC601C84B202480088A042D7
:100F3000EEDC70BDE213002000B502460F4882715E
:100F40006AB9362000F02AFA002000F02DFA4FF49A
:100F5000F0700A4948804FF4A07008800CE03620F9
:100F600000F01CFA602000F01FFA4FF4A070034953
:100F700048804FF4F070088000BD0000E2130020AC
:100F800070B504460D4616462B4622462946204695
:100F900000F09AF8304600F00DFA70BD2DE9FF4FD1
:100FA00084B081468A460020039002900698A0EB08
:100FB00009050798A0EB0A06CDF80490CDF800A02B
:100FC000002D01DD012705E00DB9002702E04FF0FB
:100FD000FF376D42002E02DD4FF0010806E016B922
:100FE0004FF0000802E04FF0FF387642B54201DDD5
:100FF0002C4600E034464FF0000B21E0009A91B2FD
:10100000019A90B200F022F80398284403900298C5
:10101000304402900398A04205DD0398001B039022
:101020000198384401900298A04205DD0298001B07
:1010300002900098404400900BF101001FFA80FBE1
:10104000601C8345DADD08B0BDE8F08F30B504469A
:101050000D462B4622462946204600F035F8024828
:10106000008800F0A7F930BDDE1300202DE9F04321
:1010700004460D4616461F46DDF81C80B44201DCCE
:10108000BD4201DDBDE8F0833B463246294620469D
:1010900000F01AF8301B401C84B2781B401C85B24B
:1010A0000BE0A94602E0404600F084F9B9F10000E7
:1010B000A9F101011FFA81F9F5D1201EA4F1010166
:1010C0008CB2EED100BFDDE770B504460D462A2094
:1010D00000F064F92646E11704EB1161C1F30F201B
:1010E00000F062F9E11704EB11610912A4EB012190
:1010F00088B200F059F91646D11702EB1161C1F31D
:101100000F2000F051F91646D11702EB11610912B8
:10111000A2EB012188B200F047F92B2000F03EF944
:101120002E46E91705EB1161C1F30F2000F03CF9E1
:10113000E91705EB11610912A5EB012188B200F056
:1011400033F91E46D91703EB1161C1F30F2000F0EC
:101150002BF91E46D91703EB11610912A3EB0121EC
:1011600088B200F021F92C2000F018F970BD0000C1
:101170002DE9F84F80460F4616461C46BB462046D2
:10118000E31704EB5373DB1021464FEAE47C04EBD6
:101190005C7C4FEAEC0CA4EBCC0CBCF1000F02D051
:1011A0004FF0010C01E04FF0000C6344224604EBC9
:1011B000D27C4FEA6C0C03FB0CF3DBB20093A6F17C
:1011C0002000C6B200255EE00C2C07D106EB4600DD
:1011D0002F4901EB800010F805901BE0102C05D181
:1011E0002C4800EB061010F8059013E0182C07D1DE
:1011F00006EBC600284901EB800010F8059009E0D5
:10120000202C05D1254800EBC61010F8059001E010
:10121000BDE8F88F4FF0000A2FE009F0800030B1F0
:101220001F48028839464046FFF7AAFE07E00A98A1
:1012300028B91C48028839464046FFF7A1FE4FEA0C
:1012400049604FEA1069781C87B217484088B84255
:1012500000DCDDE7A7EB0B00A0420AD15F4608F1F6
:1012600001001FFA80F810480088404500DCCFE7F5
:1012700006E00AF1010000F0FF0ABAF1080FCCDB2A
:1012800000BF681CC5B2009885429DDB00BFBFE768
:10129000DCC7030850CC030840D203089CDF0308D6
:1012A000DE130020E0130020E21300202DE9F84FA8
:1012B00006460F4614461D464FF0000AD34600204E
:1012C00000907819401E83B23019401E82B2394610
:1012D0003046FFF7F9FE04FB05F040000090D046D1
:1012E00025E04FF000091CE00BF101010A9810F80D
:1012F00001A04FF6FF7000EA0A2A0A9810F80B00C6
:1013000040EA0A0A07EB080291B206EB090290B222
:101310005246FFF735FE0BF1020B09F101001FFAEF
:1013200080F9A145E0DB08F101001FFA80F8A8452B
:10133000D7DBBDE8F88F2DE9F84704460D46904607
:101340009946DDE9096704F0FF0A08EB04001FFA7B
:1013500080F809EB05001FFA80F916E0444502DB2E
:101360005446A81985B24D4500DB14E000200090DA
:101370003A78334629462046FFF7FAFE304606EB18
:10138000D07104EB61018CB27F1C38787E2802DCBE
:1013900038782028E2DA00BFBDE8F88701490880E4
:1013A00070470000FE07006C01490880704700008C
:1013B0000008006C01490880704700000008006CBC
:1013C00010B502465318184610BD2DE9F0410546E8
:1013D00005F12800FFF731F8074667B1EC6A07E02E
:1013E0000121A01CFEF7BAFF064606B902E0A46878
:1013F000002CF5D100E000242046BDE8F0812DE965
:10140000F04105460C46286BA0B12E6B002701E089
:10141000374676681EB1F078E1788842F8DB66607E
:10142000A7600EB1B46000E0EC620FB17C6006E032
:101430002C6304E000206060A060EC622C6305F186
:101440002800FEF7CCFFBDE8F0814A681AB1D1E967
:1014500001329A6001E08A68C2628A681AB1D1E9F1
:1014600001235A6001E04A68026370474FF0E020B0
:10147000006970470948007830B1002007490870BA
:101480004FF08060064908604FF0E020006940F0AE
:1014900001004FF0E021086170470000F1130020C7
:1014A00004ED00E04FF0FF307047000010B5024639
:1014B0000B4612B94FF0FF3010BD0D480068B0FB6D
:1014C000F2F0411EB1F1807F02D34FF0FF30F3E71D
:1014D000FF240848C47206204FF0E0242061204613
:1014E00041610020A061044C207000BFE4E70000CF
:1014F000F413002018ED00E0F113002029B1064A92
:1015000052690243044B5A6104E0034A5269824320
:10151000014B5A61704700000010024029B1064A91
:1015200092690243044B9A6104E0034A9269824340
:10153000014B9A61704700000010024010B500F0A6
:1015400001F810BD0CB500200190009033480068F0
:1015500040F480303149086000BF3048006800F432
:10156000003000900198401C0190009818B9019833
:10157000B0F5A06FF1D12948006800F4003010B137
:101580000120009001E0002000900098012843D144
:101590002348006840F010002149086008460068B0
:1015A00020F0030008600846006840F00200086070
:1015B0001A4840681949486008464068486008462B
:1015C000406840F4806048600846406820F47C1021
:1015D00048600846406840F4E810486008460068E3
:1015E00040F08070086000BF0C48006800F0007098
:1015F0000028F9D00948406820F0030007494860F6
:101600000846406840F00200486000BF0348406858
:1016100000F00C000828F9D10CBD000000100240B9
:1016200000200240042808D14FF0E021096941F070
:1016300004014FF0E022116107E04FF0E021096959
:1016400021F004014FF0E0221161704710B504460B
:101650006FF00400FFF7E6FFE11704EB5171C1F3EF
:10166000C701074A11701046007800EB4001C1EB3A
:10167000C0104FF6FF7101EAC0000249088010BD9A
:10168000121300201413002010B5002100200022A6
:10169000214B5B6803F00C0121B1042906D0082915
:1016A00028D107E01D4B1E4C236027E01B4B1C4C30
:1016B000236023E0184B5B6803F47010164B5B68E3
:1016C00003F48032022303EB904022B9154B4343CD
:1016D000134C23600DE0104B5B6803F4003323B11F
:1016E000104B43430E4C236003E00C4B43430C4C24
:1016F000236003E0094B0A4C236000BF00BF064B88
:101700005B68C3F30313084CE15C054B1B68CB40DB
:10171000034C236010BD00000010024000127A004C
:10172000F413002000093D00F813002010B5134801
:10173000006840F0010011490860084640681049FF
:1017400008400E494860084600680E4908400B49A9
:1017500008600846006820F4802008600846406859
:1017600020F4FE0048604FF41F008860FFF7E6FE9B
:101770004FF000600449086010BD000000100240F6
:101780000000FFF8FFFFF6FE08ED00E000B59DB099
:1017900001210802FFF7B2FE012007900020089007
:1017A0000F20099000200A900B900C900D901520AE
:1017B0000090019005200290002003900490059075
:1017C000069006200E9000200F901090102011908F
:1017D0000020129014901390159016904FF48050A2
:1017E0001790002018904FF48040199000201A9014
:1017F00007A81B90CDF870D00EA8FFF75DF9012166
:101800000620FFF73FF91DB000BD000008B501211B
:101810004FF4B470FFF782FE4CF23370ADF8000065
:1018200018208DF8030003208DF80200694618483F
:10183000FFF7B5F94FF68070ADF8000018208DF86D
:10184000030003208DF8020069461248FFF7A7F94C
:1018500041F20100ADF8000018208DF803000320CC
:101860008DF8020069460C48FFF799F90120ADF8A0
:10187000000010208DF8030003208DF80200694657
:101880000648FFF78CF901210448FFF71CFA08BD50
:10189000001401400018014000200140000C0140EC
:1018A00010B5FFF7B3FFFFF771FF322000F014FA15
:1018B000D320FFF773FDA0480088A04988809E4888
:1018C000008888809C4800888880084680884FF679
:1018D000FF7101EA0020994988800846808896496E
:1018E0000988084395498880FF20FFF757FDFF20AE
:1018F000FFF754FD052000F0EFF9FF20FFF74EFD44
:10190000FF20FFF74BFDFF20FFF748FDFF20FFF70B
:1019100045FD0A2000F0E0F9B020FFF73FFD002070
:10192000FFF742FDB320FFF739FD0220FFF73CFD32
:101930000020FFF739FD0020FFF736FD0020FFF7FC
:1019400033FDC020FFF72AFD1320FFF72DFD3B20BC
:10195000FFF72AFD0020FFF727FD0020FFF724FDF9
:101960000020FFF721FD0120FFF71EFD0020FFF7FB
:101970001BFD4320FFF718FDC120FFF70FFD0820D6
:10198000FFF712FD1B20FFF70FFD0820FFF70CFDEE
:101990000820FFF709FDC420FFF700FD1120FFF725
:1019A00003FD0120FFF700FD7320FFF7FDFC012080
:1019B000FFF7FAFCC620FFF7F1FC0020FFF7F4FC6C
:1019C000C820FFF7EBFC0F20FFF7EEFC0520FFF728
:1019D000EBFC1420FFF7E8FC5C20FFF7E5FC03209C
:1019E000FFF7E2FC0720FFF7DFFC0720FFF7DCFC36
:1019F0001020FFF7D9FC0020FFF7D6FC2320FFF7CB
:101A0000D3FC1020FFF7D0FC0720FFF7CDFC072008
:101A1000FFF7CAFC5320FFF7C7FC0C20FFF7C4FCFC
:101A20001420FFF7C1FC0520FFF7BEFC0F20FFF7D5
:101A3000BBFC2320FFF7B8FC0020FFF7B5FC3520E6
:101A4000FFF7ACFC0020FFF7AFFC4420FFF7A6FC3B
:101A50000020FFF7A9FC0120FFF7A6FCD020FFF72C
:101A60009DFC0720FFF7A0FC0720FFF79DFC1D2031
:101A7000FFF79AFC0320FFF797FCD120FFF78EFCBD
:101A80000320FFF791FC5B20FFF78EFC1020FFF78F
:101A90008BFCD220FFF782FC0320FFF785FC24207B
:101AA000FFF782FC0420FFF77FFC2A20FFF776FC7B
:101AB0000020FFF779FC0020FFF776FC0120FFF7FC
:101AC00073FC3F20FFF770FC2B20FFF767FC002022
:101AD000FFF76AFC0020FFF767FC0120FFF764FCBA
:101AE000DF20FFF761FC3620FFF758FC0020FFF7EE
:101AF0005BFCC020FFF752FC1320FFF755FC3A2097
:101B0000FFF74CFC5520FFF74FFC1120FFF746FC78
:101B1000962000F0E1F82920FFF740FC1E2000F09D
:101B2000DBF82C20FFF73AFC0020FFF705FA4FF610
:101B3000FF70FFF7DDF910BD0008006CE213002014
:101B40002DE9F04107460E46154605F0020080B922
:101B500005F0010030B1314607F12800FEF763FDC2
:101B6000044615E0314607F12800FEF76FFD0446F4
:101B70000EE0BC6A05F0010018B104EA0600B042AC
:101B800005D105F0010018B904EA060000B90024E7
:101B90002046BDE8F08170B504460D46294604F1A3
:101BA0002800FEF72BFD0646304670BD30B50246D4
:101BB00000230D4C606C03E00469091B0346C068F8
:101BC00010B104698C42F7D911619360D06020B1E3
:101BD00004691569641B046182600BB1DA6001E07D
:101BE000014C626430BD000008140020C16811B1CE
:101BF000D0E902129160024AC16851647047000046
:101C00000814002010B5044601F012FB20B14FF07B
:101C1000FF31206800F02EFC10BD10B5044620688E
:101C200000F04AFC10BD70B50446002000F062FCD4
:101C30002060206808B1012504E000252146052028
:101C400000F094FC284670BD10B5044601F0F0FA8F
:101C500010B1206800F06CFC10BD10B500F05AFB0C
:101C600010BD000000221146114801F0BBFA1149D5
:101C7000086000221146104801F0B4FA0F490860CC
:101C8000002211460E4801F0ADFA0E49086000220C
:101C900011460D4801F0A6FA0C49086000221146D1
:101CA0000B4801F09FFA0B49086000BFFEE70000F7
:101CB000E51D0008E0120020251D0008E4120020A8
:101CC000491E0008E8120020651F0008EC120020E1
:101CD00051320008F01200200146114A12884A438E
:101CE0004FF0E0235A6100229A611A46126942F0CD
:101CF00001021A6100BF4FF0E022106900F00102FA
:101D00001AB100F48032002AF5D04FF0E0221269B7
:101D100022F001024FF0E0231A6100229A6170471D
:101D20001413002051E04FF0FF3200210F2001F08A
:101D300033FA26490860264800882649088000248E
:101D40002248007800F0010060B1214800880C288A
:101D500003DB01201E49088004E01D480088401C68
:101D60001B4908801948007800F00200022806D1BB
:101D70001748048821461848006801F0EDF9134817
:101D8000007800F0040004280CD1114800880128D4
:101D900003DC0C200E49088004E00D480088401E3A
:101DA0000B4908800948007800F00800082804D191
:101DB00001210A48006801F0CFF90548048821464E
:101DC0000748006801F0C8F900BFACE7F81200202E
:101DD0001613002018130020EC120020F01200202F
:101DE000E812002000242BE00020FFF71FF8044633
:101DF000012C07D101211348006801F0ADF9322010
:101E000000F052FA022C07D102210E48006801F0BE
:101E1000A3F9322000F048FA032C07D10421094825
:101E2000006801F099F9322000F03EFA042C07D145
:101E300008210448006801F08FF9322000F034FADC
:101E4000D2E70000E41200201CB580E04FF0FF3222
:101E500000210F2001F0A0F93D490860002474E042
:101E60003B48007800F00F003A4901EB0411097873
:101E700088422DD14FF4FC60364D05EB04150090DF
:101E80002B89344D05EB0415EA88324D05EB04151A
:101E9000A988304D05EB04156888FFF7E7F82D4851
:101EA00000EB0410C06820212B4DCDE900106B8899
:101EB0002A88284D05EB0415AD881D35A9B2254D9E
:101EC00005EB04156D882535A8B2FFF734FA36E026
:101ED0002248007800F00F001E4901EB0411097838
:101EE00088422CD14FF6FF701A4D05EB0415009077
:101EF0002B89184D05EB0415EA88164D05EB0415E2
:101F0000A988144D05EB04156888FFF7AFF8114850
:101F100000EB0410C06820210F4DCDE900106B8844
:101F20002A880C4D05EB0415AD881D35A9B2094D65
:101F300005EB04156D882535A8B2FFF7FCF90021E3
:101F40000748006801F008F9641C0C2C88D37DE771
:101F5000FC1200201C130020E213002018130020A4
:101F6000E812002008B588E04FF0FF3200210F2072
:101F700001F012F94149086041480088052805DB55
:101F800001214048006801F0E7F871E03B48006833
:101F9000E8B13A480068092819D80020384900906B
:101FA000098801EB81018900C1F5917188B218237C
:101FB0002A221E21FFF7DCF83048017830480288D9
:101FC0000088401C2E4B18802F48815450E02B482D
:101FD00000680B2818D1002029490090098801EBDE
:101FE00081018900C1F5917188B218232A221E212E
:101FF000FFF7BEF80021224802880088401C204BD1
:1020000018802148815433E01C4800680A2826D1F2
:102010001B48008810B31A480088401E18490880E1
:102020004FF6FF703B234FF498720A2100900F2067
:10203000FFF71CF800240DE0002004EB8401890068
:10204000C1F59171009088B218232A221E21FFF752
:102050008FF8641C0A4800888442EDDB08E00748DA
:1020600000680C2804D101210648006801F074F8CA
:1020700000210648006801F06FF875E700130020A2
:102080001A130020F012002008130020EC12002088
:102090002DE9F05F05460F4690469A4600BF00BF07
:1020A0002E4636B13078FA2803D117B1BAF1000FB5
:1020B00008D06FF003013046FEF7B6FC6FF0030066
:1020C000BDE8F09F3046FFF780F90446CCB104F13B
:1020D0000C013846726AFEF797FBB8F1000F02D088
:1020E000E07888F80000E66000BF00BFA3465846CD
:1020F00000F0C8FC39463046FEF7A2FC4FF000095C
:1021000005E039463046FEF797FC6FF00209484675
:10211000D6E72DE9F05F06460F4691469A4600BF86
:1021200000BF354635B12878FA2803D117B1BAF186
:10213000000F08D06FF003012846FEF775FC6FF022
:102140000300BDE8F09F05F10C0000F012FB04460F
:10215000D4B1394604F10C006A6AFEF755FBF92048
:1021600020700020A07084F803906760A56000BF15
:1021700000BFA346584600F085FC39462846FEF7C6
:1021800057FC4FF0000805E039462846FEF753FC9F
:102190006FF002084046D4E72DE9F04105460E46AF
:1021A00000BF00BF2C462CB12078F12802D106F0E8
:1021B000004040B16FF003012046FEF754FC6FF081
:1021C0000300BDE8F0816078042806D1C11F2046D5
:1021D000FEF749FC6FF00200F3E731462046FFF7B7
:1021E000DAFC804600BF00BF2746384600F04AFCB4
:1021F00041462046FEF739FC4046E2E770B50B4801
:10220000B0F854605630FEF7C9F958B13146074866
:102210005A30FEF7A0F905460448C06D50F8254035
:1022200000BF00E00024204670BD0000081400201C
:102230002DE9F04106460C48B0F854703946563046
:10224000FEF77AF9B8420BDA394607485830FEF7FC
:1022500082F904460448C06D40F82460012500E07E
:1022600000252846BDE8F08108140020FEF7AEFDE9
:102270004820FFF7EBF9FFF713FB0020084908801F
:1022800001F0C4FFFFF700FA00F044F80022114605
:10229000044800F0A7FF00F059F800BFFEE7000077
:1022A000DE130020651C000870B505462846FEF7C1
:1022B000A8FBFEF746FD10B9FEF707FD30B16FF041
:1022C0000500FEF7A0FB6FF0050406E000BF2846FE
:1022D000DFF80CC000DF044600BF204670BD0000E0
:1022E000FD32000810B5FEF734FD28B9FEF7F9FC01
:1022F00010B9FEF74EFD18B101F016F8044605E0DE
:1023000000BFDFF80CC000DF044600BF204610BD50
:102310002933000810B500F041F9FEF779FBFEF70C
:1023200018FD10B9FEF7DDFC30B16FF00500FEF7C7
:102330006DFB6FF0050405E000BFDFF80CC000DFA7
:10234000044600BF204610BD4133000810B5FEF71B
:1023500061FBFEF7FEFC10B9FEF7C3FC30B16FF075
:102360000500FEF753FB6FF0050405E000BFDFF842
:102370000CC000DF044600BF204610BD65350008D4
:102380002DE9F04180460D4616461F463B46324633
:1023900029464046FEF749FBFEF7E3FC10B9FEF77D
:1023A000ACFC38B13B46324629464046FFF770FE4A
:1023B000044609E000BF3B46324629464046DFF866
:1023C00010C000DF044600BF2046BDE8F0810000D9
:1023D0003D3600082DE9F04107460D4616463246C7
:1023E00029463846FEF726FBFEF7BBFC10B9FEF780
:1023F00084FC30B16FF005010020FEF715FB0024CE
:1024000008E000BF324629463846DFF810C000DF3A
:10241000044600BF2046BDE8F08100007537000883
:102420002DE9F04180460D4616461F463B46324692
:1024300029464046FEF701FBFEF793FC10B9FEF774
:102440005CFC38B13B46324629464046FFF761FE08
:10245000044609E000BF3B46324629464046DFF8C5
:1024600010C000DF044600BF2046BDE8F081000038
:102470000939000870B506460D4629463046FEF774
:10248000E0FAFEF776FC10B9FEF743FC38B16FF0C6
:1024900005013046FEF7DCFA6FF0050407E000BFE7
:1024A00029463046DFF80CC000DF044600BF204656
:1024B00070BD0000313A000870B505462846FEF7A9
:1024C000C5FAFEF756FC10B9FEF723FC38B16FF0E1
:1024D00005012846FEF7BCFA6FF0050406E000BFD0
:1024E0002846DFF80CC000DF044600BF204670BD60
:1024F0003D3B000870B505462846FEF7AAFAFEF7F0
:1025000038FC10B9FEF705FC30B16FF00501002072
:10251000FEF79EFA002406E000BF2846DFF80CC054
:1025200000DF044600BF204670BD0000213C0008CB
:1025300070B505462846FEF78EFAFEF71AFC10B96C
:10254000FEF7E7FB38B16FF005012846FEF780FA89
:102550006FF0050406E000BF2846DFF80CC000DF7E
:10256000044600BF204670BDCD3C0008062809D2B5
:10257000DFE800F008030405060704E003E002E0DA
:1025800001E000E000BF00BF00BFFEE700BFFEE7C4
:102590000148007A704700000814002070472DE9B8
:1025A000F84F0446894690462CB1B9F1000F02D08D
:1025B00028F0030040B10023424649462046FEF77A
:1025C0002BFA0020BDE8F88F09F10807F81D20F06C
:1025D000070708212046FEF7F3FE054600BF2868DE
:1025E000A0EB050A686820F00300AAEB000ABA45D0
:1025F00000D30BE02D6828680028F0D10023424664
:1026000049462046FEF708FA0020DBE700BF00BF7E
:1026100000BF201D61683944616000BF00BF2068B1
:10262000A0F1080B59462046FEF7CAFE064600BF39
:1026300000BF61687068814203D900BF00BF606855
:102640007060686840B947EA080068600821284659
:10265000FEF7B6FE009011E0686820F003012846FE
:10266000FEF7AEFE06462868306047EA0800706054
:102670002E6008213046FEF7A3FE009042464946F0
:102680002046009BFEF7C8F900989BE72DE9F04132
:1026900005460F4605B13FB9002239462846FEF7E8
:1026A000BFF90020BDE8F08100213846FEF788FE22
:1026B0008046A8F10808002608212846FEF780FE7B
:1026C000044609E02646246834B9002239462846E3
:1026D000FEF7A6F90020E5E74445F3D100BF00BFAF
:1026E000281D6968626822F00302891A696016B9B8
:1026F0000020606001E020683060012239462846F1
:10270000FEF78EF90120CDE72DE9F04104460D4694
:102710003CB104F0070020B905F0070008B9182DF6
:1027200007D2002229462046FEF77BF90020BDE8AB
:10273000F08100BF00BF27463D601020786008216F
:102740002046FEF73DFE0646A5F108012046FEF7AD
:1027500037FE306000203168086010203168486022
:1027600000207060012229462046FEF75AF9012018
:10277000DDE770B504462CB900210846FEF74DF997
:10278000002070BD04F11400FDF7CDFD054615B124
:10279000201DFDF780FD29462046FEF73EF928461C
:1027A000EFE770B504460D462CB1E068A84202D8A8
:1027B0002069A84208D86FF0030229462046FEF798
:1027C0002DF96FF0030070BD294604F11400FDF7E8
:1027D000B7FD201DFDF784FD002229462046FEF7A7
:1027E0001DF90020EFE72DE9F04704460F4690461B
:1027F0001E4624B11FB1B8F1000F00D016B9002059
:10280000BDE8F087276000206060C4F80880E660BB
:10281000666107FB08602061334642463946204620
:10282000FEF7FDF8354604E005EB0809C5F8009011
:102830004D46781E071EF7D128600120E0E72DE9FC
:10284000F05F0546A87800283CD0EC682946204671
:10285000FEF7FBFD00202870294604F10C00FFF76D
:10286000A0FFA06800286CD004F10C00FFF781FFE6
:102870000646002E65D000BF00BFA346584600F0B4
:10288000A7FA804600221146404600F093FB4046DE
:1028900000F012FB0746D7F80890494606F10C00F5
:1028A000626AFDF7B1FFF92030700020B070387B0C
:1028B000F07031462046FEF7A2FD49462046FEF75D
:1028C000B8F83EE0AC68D5F80490A06880B3A06882
:1028D000407883282DD149462046FEF7AAF800BF4C
:1028E00000BFA346584600F073FA80460022114606
:1028F000404600F05FFB404600F0DEFA0746D7F89E
:1029000008A005F10C015046626AFDF77DFFF868EA
:1029100010B1E878F968087051462046FEF790F843
:1029200000202870294604F10C00FFF73AFF08E068
:10293000FFE749462046FEF77CF829462046FEF789
:102940005EFDBDE8F09F2DE9F0410646344629E0E2
:102950006769E07800F0080018B3002020760021B5
:102960002046FEF779F8A068D8B100BF00BFA046A6
:10297000404600F02DFA054600221146284600F098
:1029800019FBE56000202061E86A6061E86A08B12F
:10299000E86A0461EC620120207601212046FEF7FE
:1029A00053F83C46002CD3D1BDE8F0812DE9F04727
:1029B0008046894698F8030000F00200E0B1D8F89C
:1029C0000C4094F92170E66A00BFB5684D4500D10E
:1029D000AD682DB195F92000B84201DD95F9207060
:1029E0007669002EF1D194F92000B84204D084F821
:1029F0002070204600F024FABDE8F08770B500BFD3
:102A0000FFF7FCFB044604B934E02078F1380928CC
:102A10002ED2DFE800F0052D0D2D2D151D2D2500E2
:102A200000BF00BF25461648016E2846884720E0B3
:102A300000BF00BF25461248416E2846884718E06F
:102A400000BF00BF25460E48816E2846884710E02B
:102A500000BF00BF25460A48C16E2846884708E0E7
:102A600000BF00BF25460648016F2846884700E0A2
:102A700000BFC5E700BF002000F03CF970BD0000BA
:102A80000814002010B504462046FFF7D1FB68B1BA
:102A90000948407A30B900BF4FF0805007490860BC
:102AA00000BF07E001210448817203E021460220B3
:102AB000FFF75CFD10BD00000814002004ED00E0ED
:102AC0002DE9F04104460120607094F920700B4814
:102AD00000BF0646B56801E02E46AD681DB195F908
:102AE0002000B842F8DCE660A560B46005B1EC6097
:102AF0002046FDF7C2FFBDE8F0810000241400204D
:102B000010B502460B465C1C8CB90021154C206B9D
:102B100001E0014600690028FBD1D3615161002426
:102B2000146109B10A611BE00E4C226318E0002118
:102B30000C4CE06A03E0C4691B1B0146006910B13C
:102B4000C4699C42F7D9D3615161106109B10A612E
:102B500001E0044CE26218B1C469E41AC461426144
:102B600010BD000008140020C169491C81B9016929
:102B700011B1D0E904215161416929B1D0E90412B0
:102B800011610021416119E00D4902690A6315E0F4
:102B9000016941B10169C969C26911440269D16120
:102BA000D0E904215161416929B1D0E904121161D0
:102BB0000021416102E002490269CA6270470000D7
:102BC0000814002070B54A48C56A05B970BDE869A7
:102BD000401EE861E86900287ED100BF687863285C
:102BE00036D008DC13280DD033280FD0432811D05D
:102BF00053285DD11AE0732836D0832840D093281B
:102C000056D149E02846FDF7FDFE52E02846FDF783
:102C100031FF4EE0284600F00BF9064600BF34466F
:102C2000204600BF0646FDF7F0FE42E0284600F0D1
:102C3000FFF8064600BF3446204600BF0646294638
:102C4000FFF7B4FE204600BF0646FDF7FCFE30E06D
:102C5000284600F0EDF8064600BF3446204600BF87
:102C60000646FDF7FAFE24E0284600F0E1F80646A5
:102C700000BF3446204600BF0646FDF7D3FE18E0ED
:102C8000284600F0D5F8064600BF3446204600BF6F
:102C90000646FDF7CCFE0CE0284600F0C9F80646D3
:102CA00000BF3446204600BF0646FDF7C8FE00E0E0
:102CB00000BF00BF284600F0FFF8066831462846EE
:102CC000FDF7DDFE284600F0A6F8284600F0E8F8FB
:102CD0002D692DB1E86900E007E000283FF47EAFE0
:102CE0000DB1002068610248C56200BF6EE70000B8
:102CF000081400202DE9F0410546FFF749FC07467E
:102D000000F060F80646A5B91448446A022F22D1A3
:102D10000CB394F9200096F9201088421BDD204660
:102D200000F079F83046FFF7CBFE204600F00EF9B0
:102D300011E0022F0CD195F9200096F9201088425D
:102D400006DD3046FFF7BCFE284600F0FFF802E043
:102D5000284600F0A5F8BDE8F08100000814002026
:102D600010B50446002060702070A07800F00200CA
:102D700078B1A07800F0100030B1114A216BD2F880
:102D80008400FFF70EFD04E00D4A216B506FFFF742
:102D90007DFCA07800F0010080B10948D0F88800DF
:102DA00030B10749D1F888002146FFF7FAFC05E069
:102DB0000349D1F880002146FFF768FC10BD0000F0
:102DC00008140020014840697047000008140020E2
:102DD0000146886882688A6082681AB100BF00BFB5
:102DE0008268D1600022C260704730B5024691F916
:102DF000204000BF00BF1346986801E0034680688A
:102E000018B190F92050A542F8DACB60886099603B
:102E100000B1C16030BDC16849B1D0E90212916012
:102E2000816811B1D0E90221D1600021C1607047F1
:102E30000146084600E0C0680278F12AFBD07047DE
:102E400070B50646344600E0E46814B12078F128F5
:102E5000FAD000BF00BF254635B13046FFF7DBFF93
:102E600031462846FFF7C1FF70BD70B50446607853
:102E7000332813D194F823202046616AFEF760FEC0
:102E800005465DB100222946204600F093F894F8EB
:102E9000231023462A46606AFDF7E9FD70BD000055
:102EA00010B504460120607021460248FFF79DFFDF
:102EB00010BD000024140020014691F82220202398
:102EC0008A6B9818704700000149486170470000FC
:102ED0000814002010B5FFF775FF044664B1216B9C
:102EE000A06B884204D9206B00680449884203D053
:102EF00021460120FFF73AFB10BD0000A52E5AE243
:102F000070B501250D480021826D0D4801F042F891
:102F1000044600BF0B4884620848406E60B1074811
:102F20000021C26D084801F035F8044600BF05488D
:102F30008464806C00B90025284670BD84120408A2
:102F40008D250008081400208D30000810B50446B7
:102F50000220607003488461FFF7BCFF2046FDF744
:102F60008DFD10BD0814002070B504460E46FFF715
:102F70000FFB022801D0002070BD0D48406A08B93F
:102F80000020F9E7FFF71EFF054631462846FDF70A
:102F900065FD6C7031462846FFF7B2FD04481C30D1
:102FA000FFF716FF05462846FFF7D0FF0120E3E7AD
:102FB000081400202DE9F04106460C46154621462E
:102FC0003046FDF75CFD3046FFF776FF07463C6074
:102FD0003046FFF7C9FD1DB13046FFF78BFE02E01A
:102FE0003046FFF75DFFBDE8F081000010B5FEF749
:102FF0003DFA2548C068401C2349C8600846006D5A
:1030000008B1086D8047FFF7DDFD0020FFF772FE75
:103010001D48006C002835D01B48816B80698142B7
:1030200005D0194881698163016CC1632AE01648A3
:10303000C06B18B11448C16B491EC1631248C06B04
:1030400000BB00BF1048007A02281BD10E48446A1A
:10305000C4B194F92010806B90F92000814211D105
:103060002046FFF7D8FE0849886BFFF719FF06498D
:10307000886BFDF702FD2046FFF768FF0248846376
:10308000016CC16310BD0000081400201CB510497C
:103090000A6E486E0821FFF79DF9054600BF0D48EE
:1030A000C5640D49016500BF0A494FF0FF33002296
:1030B000C86C6946FFF764F90446002CF4D1DDE9D9
:1030C0000001FDF7DDFCDDE900108847ECE70000BA
:1030D0008412040808140020DD30000870B515487B
:1030E000446C04B970BD2069401E20611CE020467C
:1030F000FEF77CFD0F4900231A46C86C04F1180145
:10310000FFF78EF905461DB121460320FFF72EFA81
:10311000E078012804D120466169FEF747FD01E00F
:10312000012060700348446C14B120690028DED08F
:1031300000BFD7E708140020FDF794FC00BFDFF8BC
:1031400014C000DF00BF4FF0FF310020FDF789FC05
:1031500000BFFEE7DD3D000870B506460D46294676
:103160003046FDF781FCFDF70CFE10B9FDF7DDFDE3
:1031700028B129463046FFF70FF8044607E000BFA4
:1031800029463046DFF80CC000DF044600BF204669
:1031900070BD0000693E00082DE9F04107460D466C
:1031A0001646324629463846FDF760FCFDF7E9FD34
:1031B00010B9FDF7BAFD38B16FF005010020FDF739
:1031C00052FC6FF0050408E000BF3246294638463D
:1031D000DFF80CC000DF044600BF2046BDE8F081E8
:1031E000033F00082DE9F04107460D4616463246DA
:1031F00029463846FDF740FCFDF7C3FD10B9FDF741
:1032000094FD30B16FF005010020FDF72AFC002489
:1032100008E000BF324629463846DFF810C000DF1C
:10322000044600BF2046BDE8F0810000953F00083D
:1032300010B50648007830B9FFF754F8012802DDD0
:103240000120024908700148007810BDF0130020E9
:1032500008B541E04FF0FF3200210F20FFF79CFF3F
:103260001E490860FDF79EFD60B14FF6FF70FDF747
:103270003FFE1B48F0231A46782100903C20FEF7C1
:1032800015F80BE04FF6FF70FDF732FE1548F023FE
:103290001A46782100903C20FEF708F84FF47A7027
:1032A000FEF71AFD0120104908801049088000200F
:1032B0000F49088000F0AAFF08210E480068FFF7B8
:1032C0004BFF3220FEF7F0FF0748048821460A48EA
:1032D0000068FFF741FF00BFBCE7000004130020B7
:1032E000D4050208CC430008161300201813002050
:1032F0001A130020E4120020E812002070B50446E2
:1033000074B121461320FFF72FFE18B12046FDF7B8
:103310007BFB05E000BF034840690546FDF772FBF3
:10332000002070BD0814002010B500BF0348007ACB
:1033300004462046FDF76BFB204610BD0814002014
:1033400010B58648007A012803D1FDF762FB002002
:1033500010BD8248007A30B14FF0FF30FDF756FBC8
:103360004FF0FF30F4E79C217C480830FDF7B3FABA
:103370007B48C1687948C1657948008A7749A1F8D6
:1033800054007748816875480164754A116BD06AAA
:10339000FFF7BAF920B17248C16A7048C0F88010CE
:1033A0006F4A91695069FFF7AFF920B16C484069E5
:1033B0006A49486704E06948D0F88000674948676F
:1033C000674A116AD069FFF79FF920B16448C16963
:1033D0006248816703E06148D0F880108167604AE5
:1033E000916A506AFFF790F920B15D48416A5B48E5
:1033F000C16703E05948D0F88010C1675848406B56
:1034000088B1574C646BE368554C646BA268544CAC
:10341000646B2168524C606BFFF7E5F92046406B06
:103420004E49C1F884004E48806B88B14C4CA46B67
:10343000E3684B4CA46BA268494CA46B2168484CD0
:10344000A06BFFF7D0F92046816B4448C0F8881084
:103450004348C06B88B1424CE46BE368404CE46B7A
:10346000A2683F4CE46B21683D4CE06BFFF7BBF971
:103470002046C16B3948C0F88C103948006C88B1BF
:10348000374C246CE368364C246CA268344C246CB2
:103490002168334C206CFFF7A6F92046016C2F48B9
:1034A000C0F890102E48406C88B12D4C646CE368D5
:1034B0002B4C646CA2682A4C646C2168284C606CAC
:1034C000FFF791F92046416C2448C0F89410244835
:1034D000806C88B1224CA46CE368214CA46CA26877
:1034E0001F4CA46C21681E4CA06CFFF77CF9204691
:1034F000816C1A48C0F898101948C06C88B1184CF3
:10350000E46CE368164CE46CA268154CE46C21682A
:10351000134CE06CFFF767F92046C16C0F48C0F808
:103520009C100F48006D88B10D4C246DE3680C4C65
:10353000246DA2680A4C246D2168094C206DFFF7A8
:1035400052F92046016D0548C0F8A010012003493A
:103550000872FDF75EFA0020FAE600000814002069
:103560008412040810B53148007A012806D06FF0A3
:103570000600FDF74BFA4FF0FF3010BDFFF7C0FC1F
:1035800030B94FF0FF30FDF741FA4FF0FF30F4E76C
:1035900000BFFF23264A9372927A62F0FF02D24361
:1035A000B2FA82F2C2F1200100BF214A0C3A12683D
:1035B000C2F302221046884200D3411CFE228A40F8
:1035C000D3B21B4A183AD37700BF1A4948681A4940
:1035D000FDF76CFF30B14FF0FF30FDF717FA4FF0F9
:1035E000FF30CAE7FDF75EFF10490861FDF742FFB3
:1035F0000E481C30FFF7ECFB04462046FFF7A6FC04
:103600000C48007800F0010020B1022080F31488FB
:1036100000BF04E0032080F3148800BF00BF022035
:1036200002490872FDF7F7F90020A6E70814002008
:1036300018ED00E084120408B10700082DE9FF5FCF
:103640000746884691469A4600BF00BF3C462CB1CB
:103650002078FA2802D1B8F1000F09D16FF00301E8
:103660002046FDF7E1F96FF0030004B0BDE8F09FDC
:103670002046FDF7AAFE0546002D4BD029462046E0
:10368000FDF7E3FE05F10C014046626AFDF7BCF868
:10369000B9F1000F02D0E87889F8000041462046D1
:1036A000FDF7CEF900202870294604F10C00FFF741
:1036B00078F8A06858B304F10C00FFF75AF80546F3
:1036C0002DB300BF00BF20460194FFF781FB03909C
:1036D000012200210398FFF76DFC0398FFF7ECFB34
:1036E0000646B0680290626A05F10C000299FDF787
:1036F0008BF8F92028700020A870307BE8702946EC
:103700002046FDF77CFE20460299FDF792F94FF026
:10371000000B2BE0BAF1000F22D052464146204662
:10372000FDF784F951468320FFF71EFC90B100BFDE
:103730000F484069019000BF009420460199FFF7AF
:1037400054FB00BFEFF309800646C6F80880C6F8B0
:103750000C9002E02046FDF76AF96FF0010B05E0DE
:1037600041462046FDF768F96FF0020B58467CE7AA
:10377000081400202DE9FC5F07468946154617B15D
:10378000B9F1000F07D16FF003010020FDF74CF9EC
:103790000020BDE8FC9F09F1030020F0030000F1C8
:1037A0000C0AB7FA87F0BAFA8AF10844202806D240
:1037B0006FF003010020FDF737F90020E9E707FB70
:1037C0000AF00090A5B3D5F800B0AC682E6968691E
:1037D000019064B104F0030010B9E86834280FD2F6
:1037E0006FF008010020FDF71FF90020D1E7E8681D
:1037F00030B16FF008010020FDF716F90020C8E78E
:103800006EB106F0030018B9DDE90010884214D249
:103810006FF009010020FDF707F90020B9E70198D2
:1038200058B16FF009010020FDF7FEF80020B0E765
:10383000FFE74FF0000B00240026ACB93048D0F869
:10384000A00030B12E49D1F8A000FEF792FF044647
:1038500007E02B490122D1F880003421FEF79FFEBA
:1038600004464FF0010801E04FF0000824B31EBBEE
:1038700023490022C86F0099FEF791FE0646AEB9B3
:1038800008F0010080B11E48D0F8A00030B11C49FA
:10389000D1F8A0002146FEF784FF05E01849D1F8D1
:1038A00080002146FEF7F2FE002403E03046009936
:1038B000FCF7EFFF48F00208DCB1FA20207084F832
:1038C0000280C4F804B00020A060C4F82490A06274
:1038D000E062206333465246394604F10C00FEF79D
:1038E00082FF08490648016720466168FDF79BF89A
:1038F00004E06FF004010020FDF796F8204648E749
:10390000081400203F2800082DE9FF5F07468B467A
:1039100091469A4600BF00BF3C462CB12078FA2859
:1039200002D1BBF1000F09D16FF003012046FDF772
:103930007BF86FF0030004B0BDE8F09FA06850B3BF
:10394000A0684078832826D159462046FDF771F8B3
:1039500000BF00BF20460194FFF73AFA039001220E
:1039600000210398FFF726FB0398FFF7A5FA064608
:10397000B06802905946626A0298FCF745FFF06809
:1039800010B1F06880F8009020460299FDF758F8D1
:103990004FF0000848E004F10C00FEF7EAFE05468F
:1039A000B5B1594605F10C00626AFCF72DFFF9200C
:1039B00028700020A87085F8039029462046FDF75E
:1039C0001EFD59462046FDF734F84FF000082BE065
:1039D000BAF1000F22D0524659462046FDF72EF884
:1039E00051469320FFF7C0FA90B100BF0F484069DD
:1039F000019000BF009420460199FFF7F6F900BF3F
:103A0000EFF309800646C6F808B0C6F80C9002E04D
:103A10002046FDF714F86FF0010805E059462046EE
:103A2000FDF709F86FF00208404684E7081400200B
:103A30002DE9F0470746884600BF00BF3C4600BF5F
:103A40003D484069054645B96FF007012046FCF73F
:103A5000FFFF4FF0FF30BDE8F08714B12078F52864
:103A600007D06FF003012046FCF7F2FF6FF0030070
:103A7000F1E7207E88B9E56000202061E86A606196
:103A8000E86A08B1E86A0461EC6201202076217ED0
:103A90002046FCF7D9FF00264CE0E07800F001005A
:103AA000B0B1E068A84213D1207EFF2807D16FF0A3
:103AB0000F012046FCF7CCFF6FF002063AE0207EB3
:103AC000401C2076217E2046FCF7BEFF002631E018
:103AD000B8F1000F29D0E07800F0020070B1E06882
:103AE00090F9200095F92010884207DA95F8200017
:103AF000E16881F82000E068FFF7A2F9414620461E
:103B0000FCF7A0FF41465320FFF72EFA38B100BF63
:103B100000BFA14629464846FFF767F902E0204664
:103B2000FCF791FF6FF0010604E02046FCF792FFDE
:103B30006FF0020630468EE7081400202DE9F047AA
:103B4000074600BF00BF3C4614B12078F52808D0D6
:103B50006FF003012046FCF77BFF6FF00300BDE828
:103B6000F087207E00283DD0E568606910B1D4E977
:103B700004010861206918B1D4E90410486101E02A
:103B80006069E862E07800F00200C8B195F9218030
:103B9000EE6A0AE0B06838B1B06890F9200040459C
:103BA00002DDB06890F920807669002EF2D195F997
:103BB0002000404504D085F820802846FFF740F9D2
:103BC0000BE000BF00BFA1464846FFF701F90546DC
:103BD0000022D11E2846FFF7EDF9A0680028F0D199
:103BE000FFF788F800202070A07800F0010080B175
:103BF0000A48D0F8940030B10849D1F89400214621
:103C0000FEF7CFFD05E00549D1F880002146FEF71B
:103C10003DFD2046FCF71BFF0020A0E70814002014
:103C20002DE9F0410546DDB1D5F800806E68AC683D
:103C30006CB104F0030010B9E8681C2814D26FF0CE
:103C400008010020FCF704FF0020BDE8F081E868CF
:103C500050B16FF008010020FCF7FAFE0020F4E7F5
:103C60004FF0000800260024A4B91748D0F89400AB
:103C700030B11549D1F89400FEF77BFD044607E00A
:103C800011490122D1F880001C21FEF788FC04466E
:103C9000012700E0002784B1F5202070A770E670AE
:103CA000C4F804800020A060E0602061606120769C
:103CB00020466168FCF7C9FE04E06FF004010020B3
:103CC000FCF7C6FE2046C0E7081400202DE9F047A7
:103CD000074600BF00BF3C4600BF3F48406905465D
:103CE00045B96FF007012046FCF7B2FE4FF0FF30F8
:103CF000BDE8F08714B12078F52807D06FF00301F4
:103D00002046FCF7A5FE6FF00300F1E7207E38B9EE
:103D10006FF00E012046FCF79BFE6FF00200E7E714
:103D2000E068A84207D06FF00D012046FCF790FE36
:103D30006FF00200DCE7207E401E2076217E2046C8
:103D4000FCF78AFE207E002844D1606910B1D4E9D6
:103D500004010861206918B1D4E90410486101E048
:103D60006069E862E07800F0020090B195F9218086
:103D7000EE6A0AE0B06838B1B06890F920004045BA
:103D800002DDB06890F920807669002EF2D185F8C6
:103D90002080A068D8B100BF00BFA1464846FFF709
:103DA00017F80546002211462846FFF703F9E5609B
:103DB00000202061E86A6061E86A08B1E86A04618D
:103DC000EC620120207601212046FCF73DFE002018
:103DD000FEF790FF00208BE70814002070B5FEF777
:103DE000D7FB022802D11F48406A00B970BDFEF718
:103DF000E9FF0446E06AFEF7A6FDA06938B100229B
:103E00001146A069FFF7D6F8A069FCF734FE00BFA1
:103E1000EFF30980A06313481C30FEF7D9FF054675
:103E2000FFF794F80020FFF74FF8E07800F001006A
:103E300018B92046FEF794FF0EE0042060700020C1
:103E4000E0600848406BA0600648406B10B1054830
:103E5000406BC460034844632046FCF701FE00BF8A
:103E6000C4E70000081400202DE9F041064688460A
:103E700000BF00BF34462CB12078F12802D108F0F1
:103E8000004040B16FF003012046FCF7ECFD6FF0FD
:103E90000300BDE8F0816078042806D1C11F2046E8
:103EA000FCF7E1FD6FF00200F3E741462046FDF725
:103EB00072FE0746607833281DD194F823202046EF
:103EC000616AFDF73DFE0546ADB194F8230000F0B0
:103ED000020018B9606A25EA000700E02F460122B7
:103EE00029462046FFF766F894F8231023462A4611
:103EF000606AFCF7BCFD39462046FCF7B6FD384643
:103F0000C7E72DE9F04105460F469046FEF75AFFF8
:103F1000044644B96FF007010020FCF7A4FD4FF000
:103F2000FF30BDE8F08105F0004038B16FF00301CB
:103F30002046FCF798FD6FF00300F2E73A46294669
:103F40002046FDF7FDFD064636B12346324639468A
:103F50002846FCF78CFD1BE0B8F1000F12D042465A
:103F600039462846FCF785FD656284F82370414692
:103F70003320FEF7F9FF10B92046FCF77BFD6FF008
:103F8000010605E039462846FCF772FD6FF002068F
:103F90003046C6E72DE9F74F82B09046029840B907
:103FA0006FF003010020FCF75CFD002005B0BDE8C8
:103FB000F08FB8F1000F45D0D8F800000090D8F885
:103FC00004000190D8F80840D8F81050D8F81460D0
:103FD000D8F818906CB104F0030018B9D8F80C00A8
:103FE000442810D26FF008010020FCF73AFD0020B1
:103FF000DCE7D8F80C0030B16FF008010020FCF7C6
:1040000030FD0020D2E755B105F0070000B936B900
:104010006FF00A010020FCF724FD0020C6E7B9F18B
:10402000000F02D14FF0180914E0B9F1010F02DBC3
:10403000B9F1380F0EDD6FF00B010020FCF711FD18
:104040000020B3E700200090019000240025002606
:104050004FF018095EB106F0070008B9482E06D2E5
:104060006FF00A010020FCF7FCFC00209EE7ACB9D1
:104070006148D0F8880030B15F49D1F88800FEF778
:1040800078FB044607E05C490122D1F88000442116
:10409000FEF785FA04464FF0010A01E04FF0000AEE
:1040A0007CB375BBBEB95548466D5348D0F8840003
:1040B00048B15149D1F88400FEF75BFB05468DB14C
:1040C0004AF0100A0EE04C490022486F3146FEF7D4
:1040D00066FA054606E048490022486F3146FEF779
:1040E0005EFA0546ADB90AF0010088B14248D0F841
:1040F000880038B14049D1F888002146FEF751FBCD
:1041000006E008E03C49D1F880002146FEF7BEFAFF
:1041100000244AF0020A002C63D0F1202070012014
:10412000607084F802A00198E07000986060002040
:10413000A060E06020616061A061E0614FFA89F0F9
:1041400084F820004FFA89F084F82100FD2084F8DB
:104150002200002084F823006062A062E0622563F0
:104160006663A8194038A0630298E0632F4624488C
:104170003D4638602148007800F0040060B111200D
:10418000C0EB960B05E03F1D4FF0CC303860ABF133
:10419000010BBBF1000FF6D1A76B4FF0000B04E051
:1041A000002047F82B000BF1010BBBF10D0FF7D1ED
:1041B000144878630298B863104A127802F001003C
:1041C000029A02F001014FF08072FA63039838629C
:1041D0000D480949086620466268E16BFCF73FFC20
:1041E00004E06FF004010020FCF73BFC14B1204612
:1041F000FEF780FD2046D9E608140020841204084A
:10420000A52E5AE2393100086B2E00081CB500209B
:10421000FCF76EFE4FF6FF703B234FF498720A21B5
:1042200000900F20FCF722FF4FF6FF704FF4E87369
:104230004FF498724B2100900F20FCF717FF4FF4BA
:10424000E8736F224B211046FCF7A8FE4FF4E87389
:10425000CF224B211046FCF7A1FE01240EE0622282
:1042600004FB02F04B3083B204FB02F04B3081B20E
:104270004FF498720F20FCF791FE641C042CEEDBC7
:1042800045A02021CDE900104448438802884FF41E
:1042900098713420FDF74FF841A02021CDE900109E
:1042A0003E48438802884FF498719820FDF743F800
:1042B0003CA02021CDE900103848438802884FF403
:1042C0009871FC20FDF737F837A02021CDE90010C8
:1042D00032484388028868213420FDF72CF833A047
:1042E0002021CDE900102D484388028868219820BC
:1042F000FDF721F82EA02021CDE9001027484388A2
:1043000002886821FC20FDF716F82AA02021CDE9BB
:104310000010224843880288CC213420FDF70BF896
:1043200025A02021CDE900101C4843880288CC211B
:104330009820FDF700F821A02021CDE900101748B2
:1043400043880288CC21FC20FCF7F5FF1CA020212B
:10435000CDE900101148438802884FF4CA71342017
:10436000FCF7E9FF17A02021CDE900100B48438896
:1043700002884FF4CA719820FCF7DDFF12A02021BB
:10438000CDE900100548438802884FF4CA71FC202B
:10439000FCF7D1FF1CBD000037000000E213002035
:1043A0003800000039000000310000003200000039
:1043B000330000003400000035000000360000002B
:1043C0004300000030000000450000000010F00035
:1043D000F000011BFFFFFFFFFFFFFFFFFFFFFFFFDD
:1043E000FFFFFFFFFFFFFFFFFFFFFFFFFFFFFFFFDD
:1043F000FFFFFFFFFFFFFFFFFFFFFFFFFFFFFFFFCD
:10440000FFFFFFFFFFFFFFFFFFFFFFFFFFFFFFFFBC
:10441000FFFFFFFFFFFFFFFFFFFFFFFFFFFFFFFFAC
:10442000FFFFFFFFFFFFFFFFFFFFFFFFFFFFFFFF9C
:10443000FFFFFFFFFFFFFFFFFFFFFFFFFFFFFFFF8C
:10444000FFFFFFFFFFFFFFFFFFFFFFFFFFFFFFFF7C
:10445000FFFFFFFFFFFFFFFFFFFFFFFFFFFFFFFF6C
:10446000FFFFFFFFFFFFFFFFFFFFFFFFFFFFFFFF5C
:10447000FFFFFFFFFFFFFFFFFFFFFFFFFFFFFFFF4C
:10448000FFFFFFFFFFFFFFFFFFFFFFFFFFFFFFFF3C
:10449000FFFFFFFFFFFFFFFFFFFFFFFFFFFFFFFF2C
:1044A000FFFFFFFFFFFFFFFFFFFFFFFF9EF718C6A5
:1044B000B2944D6B8A52294AC73966312421A31818
:1044C000410821088210E418252986310842694AEA
:1044D000CB5ACF7B55ADBBDEFFFFFFFFFFFFFFFFDA
:1044E000FFFFFFFFFFFFFFFFFFFFFFFFFFFFFFFFDC
:1044F000FFFFFFFFFFFFFFFFFFFFFFFFFFFFFFFFCC
:10450000FFFFFFFFFFFFFFFFFFFFFFFFFFFFFFFFBB
:10451000FFFFFFFFFFFFFFFFFFFFFFFFFFFFFFFFAB
:10452000FFFFFFFFFFFFFFFFFFFFFFFFFFFFFFFF9B
:10453000FFFFFFFFFFFFFFFFFFFFFFFFFFFFFFFF8B
:10454000FFFFFFFFFFFFFFFFFFFFFFFFFFFFFFFF7B
:10455000FFFFFFFFFFFFFFFFFFFFFFFFFFFFFFFF6B
:10456000FFFFFFFFFFFFFFFFFFFFFFFFFFFFFFFF5B
:10457000FFFFFFFFFFFFFFFFFFFFFFFFFFFFFFFF4B
:10458000FFFFFFFFFFFFFFFFFFFFFFFFFFFFFFFF3B
:10459000FFFFFFFFFFFFFFFFFFFFFFFFFFFFFFFF2B
:1045A000FFFFFFFFFFFFFFFFFFFFFFFFFFFFFFFF1B
:1045B000FFFFFFFFFFFFFFFFFFFFFFFFFFFFFFFF0B
:1045C000FFFFFFFFFFFFFFFFFFFFFFFFFFFFFFFFFB
:1045D000FFFFFFFFFFFFFFFFFFFFFFFFFFFFFFFFEB
:1045E000FFFFFFFFFFFFFFFFFFFFFFFFFFFFFFFFDB
:1045F000FFFFFFFFFFFFFFFFFFFFFFFFFFFFFFFFCB
:10460000FFFFFFFFFFFFFFFFFFFFFFFFFFFFFFFFBA
:10461000FFFFFFFFFFFFFFFFFFFFFFFFFFFFFFFFAA
:10462000FFFFFFFFFFFFFFFFFFFFFFFFFFFFFFFF9A
:10463000FFFFFFFFFFFFFFFFFFFFFFFFFFFFFFFF8A
:10464000FFFFFFFFFFFFFFFFFFFFFFFFFFFFFFFF7A
:10465000FFFFFFFFFFFFFFFFFFFFFFFFFFFFFFFF6A
:10466000FFFFFFFFFFFFFFFFFFFFFFFFFFFFFFFF5A
:10467000FFFFFFFFFFFFFFFFFFFFFFFFFFFFFFFF4A
:10468000FFFFDBDECF7B284266298210000000009E
:10469000000000000000000000000000000000001A
:1046A000000000000000000000000000000000000A
:1046B00000000000000000002100E418C739AA52E1
:1046C00034A5BEF7FFFFFFFFFFFFFFFFFFFFFFFF68
:1046D000FFFFFFFFFFFFFFFFFFFFFFFFFFFFFFFFEA
:1046E000FFFFFFFFFFFFFFFFFFFFFFFFFFFFFFFFDA
:1046F000FFFFFFFFFFFFFFFFFFFFFFFFFFFFFFFFCA
:10470000FFFFFFFFFFFFFFFFFFFFFFFFFFFFFFFFB9
:10471000FFFFFFFFFFFFFFFFFFFFFFFFFFFFFFFFA9
:10472000FFFFFFFFFFFFFFFFFFFFFFFFFFFFFFFF99
:10473000FFFFFFFFFFFFFFFFFFFFFFFFFFFFFFFF89
:10474000FFFFFFFFFFFFFFFFFFFFFFFFFFFFFFFF79
:10475000FFFFFFFFFFFFFFFFFFFFFFFFFFFFFFFF69
:10476000FFFFFFFFFFFFFFFFFFFFFFFFFFFFFFFF59
:10477000FFFFFFFFFFFFFFFFFFFFFFFFFFFFFFFF49
:10478000FFFFFFFFFFFFFFFFFFFFFFFFFFFFFFFF39
:10479000FFFFFFFFFFFFFFFFFFFFFFFFFFFFFFFF29
:1047A000FFFFFFFFFFFFFFFFFFFFFFFFFFFFFFFF19
:1047B000FFFFFFFFFFFFFFFFFFFFFFFFFFFFFFFF09
:1047C000FFFFFFFFFFFFFFFFFFFFFFFFFFFFFFFFF9
:1047D000FFFFFFFFFFFFFFFFFFFFFFFFFFFFFFFFE9
:1047E000FFFFFFFFFFFFFFFFFFFFFFFFFFFFFFFFD9
:1047F000FFFFFFFFFFFFFFFFFFFFFFFFFFFFFFFFC9
:10480000FFFFFFFFFFFFFFFFFFFFFFFFFFFFFFFFB8
:10481000FFFFFFFFFFFFFFFFFFFFFFFFFFFFFFFFA8
:10482000FFFFFFFFFFFFFFFFFFFFFFFFFFFFFFFF98
:10483000FFFFFFFFFFFFFFFFFFFFFFFFFFFFFFFF88
:10484000FFFFFFFFFFFFFFFFFFFFFFFFFFFFFFFF78
:10485000FFFFFFFFFFFFFFFFFFFF7DEF30842421FD
:1048600061080000200000000000000000000000BF
:104870000000000000000000000000000000000038
:104880000000000000000000000000000000000028
:104890000000000000000000000000000000000018
:1048A00000002000C318494AD7BDFFFFFFFFFFFFEC
:1048B000FFFFFFFFFFFFFFFFFFFFFFFFFFFFFFFF08
:1048C000FFFFFFFFFFFFFFFFFFFFFFFFFFFFFFFFF8
:1048D000FFFFFFFFFFFFFFFFFFFFFFFFFFFFFFFFE8
:1048E000FFFFFFFFFFFFFFFFFFFFFFFFFFFFFFFFD8
:1048F000FFFFFFFFFFFFFFFFFFFFFFFFFFFFFFFFC8
:10490000FFFFFFFFFFFFFFFFFFFFFFFFFFFFFFFFB7
:10491000FFFFFFFFFFFFFFFFFFFFFFFFFFFFFFFFA7
:10492000FFFFFFFFFFFFFFFFFFFFFFFFFFFFFFFF97
:10493000FFFFFFFFFFFFFFFFFFFFFFFFFFFFFFFF87
:10494000FFFFFFFFFFFFFFFFFFFFFFFFFFFFFFFF77
:10495000FFFFFFFFFFFFFFFFFFFFFFFFFFFFFFFF67
:10496000FFFFFFFFFFFFFFFFFFFFFFFFFFFFFFFF57
:10497000FFFFFFFFFFFFFFFFFFFFFFFFFFFFFFFF47
:10498000FFFFFFFFFFFFFFFFFFFFFFFFFFFFFFFF37
:10499000FFFFFFFFFFFFFFFFFFFFFFFFFFFFFFFF27
:1049A000FFFFFFFFFFFFFFFFFFFFFFFFFFFFFFFF17
:1049B000FFFFFFFFFFFFFFFFFFFFFFFFFFFFFFFF07
:1049C000FFFFFFFFFFFFFFFFFFFFFFFFFFFFFFFFF7
:1049D000FFFFFFFFFFFFFFFFFFFFFFFFFFFFFFFFE7
:1049E000FFFFFFFFFFFFFFFFFFFFFFFFFFFFFFFFD7
:1049F000FFFFFFFFFFFFFFFFFFFFFFFFFFFFFFFFC7
:104A0000FFFFFFFFFFFFFFFFFFFFFFFFFFFFFFFFB6
:104A1000FFFFFFFFFFFFFFFFFFFFFFFFFFFFFFFFA6
:104A2000FFFFFFFFFFFFFFFFFFFFFFFFFFFFFFFF96
:104A3000FFFFFFFFFBDE86312000000020000000AA
:104A40000000000000000000000000000000000066
:104A50000000000000000000000000000000000056
:104A60000000000000000000000000000000000046
:104A70000000000000000000000000000000200016
:104A80000000000000000000000000004108EF7B73
:104A9000FFFFFFFFFFFFFFFFFFFFFFFFFFFFFFFF26
:104AA000FFFFFFFFFFFFFFFFFFFFFFFFFFFFFFFF16
:104AB000FFFFFFFFFFFFFFFFFFFFFFFFFFFFFFFF06
:104AC000FFFFFFFFFFFFFFFFFFFFFFFFFFFFFFFFF6
:104AD000FFFFFFFFFFFFFFFFFFFFFFFFFFFFFFFFE6
:104AE000FFFFFFFFFFFFFFFFFFFFFFFFFFFFFFFFD6
:104AF000FFFFFFFFFFFFFFFFFFFFFFFFFFFFFFFFC6
:104B0000FFFFFFFFFFFFFFFFFFFFFFFFFFFFFFFFB5
:104B1000FFFFFFFFFFFFFFFFFFFFFFFFFFFFFFFFA5
:104B2000FFFFFFFFFFFFFFFFFFFFFFFFFFFFFFFF95
:104B3000FFFFFFFFFFFFFFFFFFFFFFFFFFFFFFFF85
:104B4000FFFFFFFFFFFFFFFFFFFFFFFFFFFFFFFF75
:104B5000FFFFFFFFFFFFFFFFFFFFFFFFFFFFFFFF65
:104B6000FFFFFFFFFFFFFFFFFFFFFFFFFFFFFFFF55
:104B7000FFFFFFFFFFFFFFFFFFFFFFFFFFFFFFFF45
:104B8000FFFFFFFFFFFFFFFFFFFFFFFFFFFFFFFF35
:104B9000FFFFFFFFFFFFFFFFFFFFFFFFFFFFFFFF25
:104BA000FFFFFFFFFFFFFFFFFFFFFFFFFFFFFFFF15
:104BB000FFFFFFFFFFFFFFFFFFFFFFFFFFFFFFFF05
:104BC000FFFFFFFFFFFFFFFFFFFFFFFFFFFFFFFFF5
:104BD000FFFFFFFFFFFFFFFFFFFFFFFFFFFFFFFFE5
:104BE000FFFFFFFFFFFFFFFFFFFFFFFFFFFFFFFFD5
:104BF000FFFFFFFFFFFFFFFFFFFFFFFFFFFFFFFFC5
:104C0000FFFFFFFFFFFFFFFFFFFFFFFFDFFF5DEF86
:104C10006D6B0000000000000000000000000000BC
:104C20000000000000000000000000000000000084
:104C30000000000000000000000000000000000074
:104C40000000000000000000000000000000000064
:104C50000000000000000000000000000000000054
:104C60000000000000000000000000000000000044
:104C70000000C318D7BDBEF7FFFFFFFFFFFFFFFF18
:104C8000FFFFFFFFFFFFFFFFFFFFFFFFFFFFFFFF34
:104C9000FFFFFFFFFFFFFFFFFFFFFFFFFFFFFFFF24
:104CA000FFFFFFFFFFFFFFFFFFFFFFFFFFFFFFFF14
:104CB000FFFFFFFFFFFFFFFFFFFFFFFFFFFFFFFF04
:104CC000FFFFFFFFFFFFFFFFFFFFFFFFFFFFFFFFF4
:104CD000FFFFFFFFFFFFFFFFFFFFFFFFFFFFFFFFE4
:104CE000FFFFFFFFFFFFFFFFFFFFFFFFFFFFFFFFD4
:104CF000FFFFFFFFFFFFFFFFFFFFFFFFFFFFFFFFC4
:104D0000FFFFFFFFFFFFFFFFFFFFFFFFFFFFFFFFB3
:104D1000FFFFFFFFFFFFFFFFFFFFFFFFFFFFFFFFA3
:104D2000FFFFFFFFFFFFFFFFFFFFFFFFFFFFFFFF93
:104D3000FFFFFFFFFFFFFFFFFFFFFFFFFFFFFFFF83
:104D4000FFFFFFFFFFFFFFFFFFFFFFFFFFFFFFFF73
:104D5000FFFFFFFFFFFFFFFFFFFFFFFFFFFFFFFF63
:104D6000FFFFFFFFFFFFFFFFFFFFFFFFFFFFFFFF53
:104D7000FFFFFFFFFFFFFFFFFFFFFFFFFFFFFFFF43
:104D8000FFFFFFFFFFFFFFFFFFFFFFFFFFFFFFFF33
:104D9000FFFFFFFFFFFFFFFFFFFFFFFFFFFFFFFF23
:104DA000FFFFFFFFFFFFFFFFFFFFFFFFFFFFFFFF13
:104DB000FFFFFFFFFFFFFFFFFFFFFFFFFFFFFFFF03
:104DC000FFFFFFFFFFFFFFFFFFFFFFFFFFFFFFFFF3
:104DD000FFFFFFFFFFFFFFFFFFFFFFFFFFFFFFFFE3
:104DE000FFFFFFFFFFFFFFFF7DEF14A5A3100000F3
:104DF00000000000000000000000000000000000B3
:104E000000000000000000000000000000000000A2
:104E10000000000000000000000000000000000092
:104E20000000000000000000000000000000000082
:104E30000000000000000000000000000000000072
:104E40000000000000000000000000000000000062
:104E500000000000000020006A4A7AD6FFFFFFFF32
:104E6000FFFFFFFFFFFFFFFFFFFFFFFFFFFFFFFF52
:104E7000FFFFFFFFFFFFFFFFFFFFFFFFFFFFFFFF42
:104E8000FFFFFFFFFFFFFFFFFFFFFFFFFFFFFFFF32
:104E9000FFFFFFFFFFFFFFFFFFFFFFFFFFFFFFFF22
:104EA000FFFFFFFFFFFFFFFFFFFFFFFFFFFFFFFF12
:104EB000FFFFFFFFFFFFFFFFFFFFFFFFFFFFFFFF02
:104EC000FFFFFFFFFFFFFFFFFFFFFFFFFFFFFFFFF2
:104ED000FFFFFFFFFFFFFFFFFFFFFFFFFFFFFFFFE2
:104EE000FFFFFFFFFFFFFFFFFFFFFFFFFFFFFFFFD2
:104EF000FFFFFFFFFFFFFFFFFFFFFFFFFFFFFFFFC2
:104F0000FFFFFFFFFFFFFFFFFFFFFFFFFFFFFFFFB1
:104F1000FFFFFFFFFFFFFFFFFFFFFFFFFFFFFFFFA1
:104F2000FFFFFFFFFFFFFFFFFFFFFFFFFFFFFFFF91
:104F3000FFFFFFFFFFFFFFFFFFFFFFFFFFFFFFFF81
:104F4000FFFFFFFFFFFFFFFFFFFFFFFFFFFFFFFF71
:104F5000FFFFFFFFFFFFFFFFFFFFFFFFFFFFFFFF61
:104F6000FFFFFFFFFFFFFFFFFFFFFFFFFFFFFFFF51
:104F7000FFFFFFFFFFFFFFFFFFFFFFFFFFFFFFFF41
:104F8000FFFFFFFFFFFFFFFFFFFFFFFFFFFFFFFF31
:104F9000FFFFFFFFFFFFFFFFFFFFFFFFFFFFFFFF21
:104FA000FFFFFFFFFFFFFFFFFFFFFFFFFFFFFFFF11
:104FB000FFFFFFFFFFFFFFFFFFFFFFFFFFFFFFFF01
:104FC000FFFFFFFF5DEFEF7B210800000000000006
:104FD00000000000000000000000000000000000D1
:104FE00000000000000000000000000000000000C1
:104FF00000000000000000000000000000000000B1
:1050000000000000000000000000000000000000A0
:105010000000000000000000000000000000000090
:105020000000000000000000000000000000000080
:105030000000000000000000000000002529B7B5B6
:10504000FFFFFFFFFFFFFFFFFFFFFFFFFFFFFFFF70
:10505000FFFFFFFFFFFFFFFFFFFFFFFFFFFFFFFF60
:10506000FFFFFFFFFFFFFFFFFFFFFFFFFFFFFFFF50
:10507000FFFFFFFFFFFFFFFFFFFFFFFFFFFFFFFF40
:10508000FFFFFFFFFFFFFFFFFFFFFFFFFFFFFFFF30
:10509000FFFFFFFFFFFFFFFFFFFFFFFFFFFFFFFF20
:1050A000FFFFFFFFFFFFFFFFFFFFFFFFFFFFFFFF10
:1050B000FFFFFFFFFFFFFFFFFFFFFFFFFFFFFFFF00
:1050C000FFFFFFFFFFFFFFFFFFFFFFFFFFFFFFFFF0
:1050D000FFFFFFFFFFFFFFFFFFFFFFFFFFFFFFFFE0
:1050E000FFFFFFFFFFFFFFFFFFFFFFFFFFFFFFFFD0
:1050F000FFFFFFFFFFFFFFFFFFFFFFFFFFFFFFFFC0
:10510000FFFFFFFFFFFFFFFFFFFFFFFFFFFFFFFFAF
:10511000FFFFFFFFFFFFFFFFFFFFFFFFFFFFFFFF9F
:10512000FFFFFFFFFFFFFFFFFFFFFFFFFFFFFFFF8F
:10513000FFFFFFFFFFFFFFFFFFFFFFFFFFFFFFFF7F
:10514000FFFFFFFFFFFFFFFFFFFFFFFFFFFFFFFF6F
:10515000FFFFFFFFFFFFFFFFFFFFFFFFFFFFFFFF5F
:10516000FFFFFFFFFFFFFFFFFFFFFFFFFFFFFFFF4F
:10517000FFFFFFFFFFFFFFFFFFFFFFFFFFFFFFFF3F
:10518000FFFFFFFFFFFFFFFFFFFFFFFFFFFFFFFF2F
:10519000FFFFFFFFFFFFFFFFFFFFFFFFFFFFFFFF1F
:1051A0007DEF4D6B200000000000000000000000BB
:1051B00000000000000000000000000000000000EF
:1051C00000000000000000000000000000000000DF
:1051D00000000000000000000000000000000000CF
:1051E00000000000000000000000000000000000BF
:1051F00000000000000000000000000000000000AF
:10520000000000000000000000000000000000009E
:10521000000000000000000000000000000000008E
:10522000452934A5FFFFFFFFFFFFFFFFFFFFFFFF43
:10523000FFFFFFFFFFFFFFFFFFFFFFFFFFFFFFFF7E
:10524000FFFFFFFFFFFFFFFFFFFFFFFFFFFFFFFF6E
:10525000FFFFFFFFFFFFFFFFFFFFFFFFFFFFFFFF5E
:10526000FFFFFFFFFFFFFFFFFFFFFFFFFFFFFFFF4E
:10527000FFFFFFFFFFFFFFFFFFFFFFFFFFFFFFFF3E
:10528000FFFFFFFFFFFFFFFFFFFFFFFFFFFFFFFF2E
:10529000FFFFFFFFFFFFFFFFFFFFFFFFFFFFFFFF1E
:1052A000FFFFFFFFFFFFFFFFFFFFFFFFFFFFFFFF0E
:1052B000FFFFFFFFFFFFFFFFFFFFFFFFFFFFFFFFFE
:1052C000FFFFFFFFFFFFFFFFFFFFFFFFFFFFFFFFEE
:1052D000FFFFFFFFFFFFFFFFFFFFFFFFFFFFFFFFDE
:1052E000FFFFFFFFFFFFFFFFFFFFFFFFFFFFFFFFCE
:1052F000FFFFFFFFFFFFFFFFFFFFFFFFFFFFFFFFBE
:10530000FFFFFFFFFFFFFFFFFFFFFFFFFFFFFFFFAD
:10531000FFFFFFFFFFFFFFFFFFFFFFFFFFFFFFFF9D
:10532000FFFFFFFFFFFFFFFFFFFFFFFFFFFFFFFF8D
:10533000FFFFFFFFFFFFFFFFFFFFFFFFFFFFFFFF7D
:10534000FFFFFFFFFFFFFFFFFFFFFFFFFFFFFFFF6D
:10535000FFFFFFFFFFFFFFFFFFFFFFFFFFFFFFFF5D
:10536000FFFFFFFFFFFFFFFFFFFFFFFFFFFFFFFF4D
:10537000FFFFFFFFFFFFFFFFFFFFFFFF5DEFAB52F0
:10538000000000000000000000000000000000001D
:10539000000000000000000000000000000000000D
:1053A00000000000000000000000000000000000FD
:1053B00000000000000000000000000000000000ED
:1053C00000000000000000000000000000000000DD
:1053D00000000000000000000000000000000000CD
:1053E00000000000000000000000000000000000BD
:1053F00000000000000000000000000000000000AD
:10540000000000000421B39CFFFFFFFFFFFFFFFF30
:10541000FFFFFFFFFFFFFFFFFFFFFFFFFFFFFFFF9C
:10542000FFFFFFFFFFFFFFFFFFFFFFFFFFFFFFFF8C
:10543000FFFFFFFFFFFFFFFFFFFFFFFFFFFFFFFF7C
:10544000FFFFFFFFFFFFFFFFFFFFFFFFFFFFFFFF6C
:10545000FFFFFFFFFFFFFFFFFFFFFFFFFFFFFFFF5C
:10546000FFFFFFFFFFFFFFFFFFFFFFFFFFFFFFFF4C
:10547000FFFFFFFFFFFFFFFFFFFFFFFFFFFFFFFF3C
:10548000FFFFFFFFFFFFFFFFFFFFFFFFFFFFFFFF2C
:10549000FFFFFFFFFFFFFFFFFFFFFFFFFFFFFFFF1C
:1054A000FFFFFFFFFFFFFFFFFFFFFFFFFFFFFFFF0C
:1054B000FFFFFFFFFFFFFFFFFFFFFFFFFFFFFFFFFC
:1054C000FFFFFFFFFFFFFFFFFFFFFFFFFFFFFFFFEC
:1054D000FFFFFFFFFFFFFFFFFFFFFFFFFFFFFFFFDC
:1054E000FFFFFFFFFFFFFFFFFFFFFFFFFFFFFFFFCC
:1054F000FFFFFFFFFFFFFFFFFFFFFFFFFFFFFFFFBC
:10550000FFFFFFFFFFFFFFFFFFFFFFFFFFFFFFFFAB
:10551000FFFFFFFFFFFFFFFFFFFFFFFFFFFFFFFF9B
:10552000FFFFFFFFFFFFFFFFFFFFFFFFFFFFFFFF8B
:10553000FFFFFFFFFFFFFFFFFFFFFFFFFFFFFFFF7B
:10554000FFFFFFFFFFFFFFFFFFFFFFFFFFFFFFFF6B
:10555000FFFFFFFFFFFFFFFFFFFF8E73210820000B
:10556000000000000000000000000000000000003B
:10557000000000000000000000000000000000002B
:10558000000000000000000000000000000000001B
:10559000000000000000000000000000000000000B
:1055A00000000000000000000000000000000000FB
:1055B00000000000000000000000000000000000EB
:1055C00000000000000000000000000000000000DB
:1055D00000000000000000000000000000000000CB
:1055E000000000000000000004217AD6FFFFFFFF4A
:1055F000FFFFFFFFFFFFFFFFFFFFFFFFFFFFFFFFBB
:10560000FFFFFFFFFFFFFFFFFFFFFFFFFFFFFFFFAA
:10561000FFFFFFFFFFFFFFFFFFFFFFFFFFFFFFFF9A
:10562000FFFFFFFFFFFFFFFFFFFFFFFFFFFFFFFF8A
:10563000FFFFFFFFFFFFFFFFFFFFFFFFFFFFFFFF7A
:10564000FFFFFFFFFFFFFFFFFFFFFFFFFFFFFFFF6A
:10565000FFFFFFFFFFFFFFFFFFFFFFFFFFFFFFFF5A
:10566000FFFFFFFFFFFFFFFFFFFFFFFFFFFFFFFF4A
:10567000FFFFFFFFFFFFFFFFFFFFFFFFFFFFFFFF3A
:10568000FFFFFFFFFFFFFFFFFFFFFFFFFFFFFFFF2A
:10569000FFFFFFFFFFFFFFFFFFFFFFFFFFFFFFFF1A
:1056A000FFFFFFFFFFFFFFFFFFFFFFFFFFFFFFFF0A
:1056B000FFFFFFFFFFFFFFFFFFFFFFFFFFFFFFFFFA
:1056C000FFFFFFFFFFFFFFFFFFFFFFFFFFFFFFFFEA
:1056D000FFFFFFFFFFFFFFFFFFFFFFFFFFFFFFFFDA
:1056E000FFFFFFFFFFFFFFFFFFFFFFFFFFFFFFFFCA
:1056F000FFFFFFFFFFFFFFFFFFFFFFFFFFFFFFFFBA
:10570000FFFFFFFFFFFFFFFFFFFFFFFFFFFFFFFFA9
:10571000FFFFFFFFFFFFFFFFFFFFFFFFFFFFFFFF99
:10572000FFFFFFFFFFFFFFFFFFFFFFFFFFFFFFFF89
:10573000FFFFFFFFFFFF7ACE821020000000000075
:105740000000000000000000000000000000000059
:105750000000000000000000000000000000000049
:105760000000000000000000000000000000000039
:105770000000000000000000000000000000000029
:105780000000000000000000000000000000000019
:105790000000000000000000000000000000000009
:1057A00000000000000000000000000000000000F9
:1057B00000000000000000000000000000000000E9
:1057C000000000000000000000000000494ADFFF68
:1057D000FFFFFFFFFFFFFFFFFFFFFFFFFFFFFFFFD9
:1057E000FFFFFFFFFFFFFFFFFFFFFFFFFFFFFFFFC9
:1057F000FFFFFFFFFFFFFFFFFFFFFFFFFFFFFFFFB9
:10580000FFFFFFFFFFFFFFFFFFFFFFFFFFFFFFFFA8
:10581000FFFFFFFFFFFFFFFFFFFFFFFFFFFFFFFF98
:10582000FFFFFFFFFFFFFFFFFFFFFFFFFFFFFFFF88
:10583000FFFFFFFFFFFFFFFFFFFFFFFFFFFFFFFF78
:10584000FFFFFFFFFFFFFFFFFFFFFFFFFFFFFFFF68
:10585000FFFFFFFFFFFFFFFFFFFFFFFFFFFFFFFF58
:10586000FFFFFFFFFFFFFFFFFFFFFFFFFFFFFFFF48
:10587000FFFFFFFFFFFFFFFFFFFFFFFFFFFFFFFF38
:10588000FFFFFFFFFFFFFFFFFFFFFFFFFFFFFFFF28
:10589000FFFFFFFFFFFFFFFFFFFFFFFFFFFFFFFF18
:1058A000FFFFFFFFFFFFFFFFFFFFFFFFFFFFFFFF08
:1058B000FFFFFFFFFFFFFFFFFFFFFFFFFFFFFFFFF8
:1058C000FFFFFFFFFFFFFFFFFFFFFFFFFFFFFFFFE8
:1058D000FFFFFFFFFFFFFFFFFFFFFFFFFFFFFFFFD8
:1058E000FFFFFFFFFFFFFFFFFFFFFFFFFFFFFFFFC8
:1058F000FFFFFFFFFFFFFFFFFFFFFFFFFFFFFFFFB8
:10590000FFFFFFFFFFFFFFFFFFFFFFFFFFFFFFFFA7
:10591000FFFFBEF7A73920000000000000000000D4
:105920000000000000000000000000000000000077
:105930000000000000000000000000000000000067
:105940000000000000000000000000000000000057
:105950000000000000000000000000000000000047
:105960000000000000000000000000000000000037
:105970000000000000000000000000000000000027
:105980000000000000000000000000000000000017
:105990000000000000000000000000000000000007
:1059A00000000000000000000000000000000000F7
:1059B00075ADFFFFFFFFFFFFFFFFFFFFFFFFFFFFD3
:1059C000FFFFFFFFFFFFFFFFFFFFFFFFFFFFFFFFE7
:1059D000FFFFFFFFFFFFFFFFFFFFFFFFFFFFFFFFD7
:1059E000FFFFFFFFFFFFFFFFFFFFFFFFFFFFFFFFC7
:1059F000FFFFFFFFFFFFFFFFFFFFFFFFFFFFFFFFB7
:105A0000FFFFFFFFFFFFFFFFFFFFFFFFFFFFFFFFA6
:105A1000FFFFFFFFFFFFFFFFFFFFFFFFFFFFFFFF96
:105A2000FFFFFFFFFFFFFFFFFFFFFFFFFFFFFFFF86
:105A3000FFFFFFFFFFFFFFFFFFFFFFFFFFFFFFFF76
:105A4000FFFFFFFFFFFFFFFFFFFFFFFFFFFFFFFF66
:105A5000FFFFFFFFFFFFFFFFFFFFFFFFFFFFFFFF56
:105A6000FFFFFFFFFFFFFFFFFFFFFFFFFFFFFFFF46
:105A7000FFFFFFFFFFFFFFFFFFFFFFFFFFFFFFFF36
:105A8000FFFFFFFFFFFFFFFFFFFFFFFFFFFFFFFF26
:105A9000FFFFFFFFFFFFFFFFFFFFFFFFFFFFFFFF16
:105AA000FFFFFFFFFFFFFFFFFFFFFFFFFFFFFFFF06
:105AB000FFFFFFFFFFFFFFFFFFFFFFFFFFFFFFFFF6
:105AC000FFFFFFFFFFFFFFFFFFFFFFFFFFFFFFFFE6
:105AD000FFFFFFFFFFFFFFFFFFFFFFFFFFFFFFFFD6
